{
  "contractName": "EnsRelayPoop",
  "abi": [
    {
      "constant": true,
      "inputs": [
        {
          "name": "_domain",
          "type": "string"
        }
      ],
      "name": "get",
      "outputs": [
        {
          "name": "",
          "type": "string"
        }
      ],
      "payable": false,
      "type": "function"
    },
    {
      "constant": false,
      "inputs": [
        {
          "name": "_domain",
          "type": "string"
        },
        {
          "name": "_hash",
          "type": "string"
        }
      ],
      "name": "set",
      "outputs": [],
      "payable": false,
      "type": "function"
    },
    {
      "anonymous": false,
      "inputs": [
        {
          "indexed": false,
          "name": "meh",
          "type": "bool"
        }
      ],
      "name": "LogSuccess",
      "type": "event"
    }
  ],
  "bytecode": "0x6060604052341561000f57600080fd5b5b6104b88061001f6000396000f300606060405263ffffffff7c0100000000000000000000000000000000000000000000000000000000600035041663693ec85e8114610048578063e942b51614610111575b600080fd5b341561005357600080fd5b61009960046024813581810190830135806020601f820181900481020160405190810160405281815292919060208401838380828437509496506101a695505050505050565b60405160208082528190810183818151815260200191508051906020019080838360005b838110156100d65780820151818401525b6020016100bd565b50505050905090810190601f1680156101035780820380516001836020036101000a031916815260200191505b509250505060405180910390f35b341561011c57600080fd5b6101a460046024813581810190830135806020601f8201819004810201604051908101604052818152929190602084018383808284378201915050505050509190803590602001908201803590602001908080601f0160208091040260200160405190810160405281815292919060208401838380828437509496506102b895505050505050565b005b6101ae6103da565b6000826040518082805190602001908083835b602083106101e157805182525b601f1990920191602091820191016101c1565b6001836020036101000a03801982511681845116808217855250505050505090500191505090815260200160405180910390206001018054600181600116156101000203166002900480601f0160208091040260200160405190810160405280929190818152602001828054600181600116156101000203166002900480156102ab5780601f10610280576101008083540402835291602001916102ab565b820191906000526020600020905b81548152906001019060200180831161028e57829003601f168201915b505050505090505b919050565b60408051908101604052803373ffffffffffffffffffffffffffffffffffffffff168152602001828152506000836040518082805190602001908083835b6020831061031657805182525b601f1990920191602091820191016102f6565b6001836020036101000a0380198251168184511680821785525050505050509050019150509081526020016040519081900390208151815473ffffffffffffffffffffffffffffffffffffffff191673ffffffffffffffffffffffffffffffffffffffff9190911617815560208201518160010190805161039b9291602001906103ec565b509050507f84c0720c14a2832bd33187d8657e64f9fa35079b62ab28a24309580037d14d526001604051901515815260200160405180910390a15b5050565b60206040519081016040526000815290565b828054600181600116156101000203166002900490600052602060002090601f016020900481019282601f1061042d57805160ff191683800117855561045a565b8280016001018555821561045a579182015b8281111561045a57825182559160200191906001019061043f565b5b5061046792915061046b565b5090565b61048991905b808211156104675760008155600101610471565b5090565b905600a165627a7a723058204262a5ac1eb66bdbe2a660cc2e16993d9bbefc847b9866fed729f173e84414f30029",
  "source": "pragma solidity ^0.4.13;\n\n/// @title EnsRelay contract that maps ens domain names to ipfs hashes\n\n contract EnsRelayPoop {\n\n     mapping (string => Website) websites;\n\n     struct Website {\n         address owner;\n         string ipfsHash;\n     }\n\n     event LogSuccess(bool meh);\n\n     /// @dev sets ens domain name to struct of domain owner and ipfs hash\n     /// @param _domain ens domain name ex: vitalik (no \".eth\" !)\n     /// @param _hash ipfs hash of website\n     /// `msg.sender = owner of domain`\n     function set(string _domain, string _hash) public {\n\n        // if the owner of the ENS domain is the function caller, store the hash\n        websites[_domain] = Website({\n            owner : msg.sender,\n            ipfsHash : _hash\n        });\n\n        LogSuccess(true);\n     }\n\n    /// @dev gets ipfsHash from ens domain name\n    /// @param _domain ens domain name\n    /// @return ipfsHash\n     function get(string _domain)\n     public\n     constant\n     returns (string)\n     {\n         return websites[_domain].ipfsHash;\n     }\n }\n",
  "sourcePath": "/Users/collinchin/Desktop/register/contracts/EnsRelayPoop.sol",
  "schemaVersion": "1.0.0",
  "updatedAt": "2017-10-15T09:29:21.423Z"
}