{
  "contractName": "EnsRelay",
  "abi": [
    {
      "constant": true,
      "inputs": [
        {
          "name": "_domain",
          "type": "string"
        }
      ],
      "name": "getOwner",
      "outputs": [
        {
          "name": "",
          "type": "address"
        }
      ],
      "payable": false,
      "type": "function"
    },
    {
      "constant": true,
      "inputs": [
        {
          "name": "_domain",
          "type": "string"
        }
      ],
      "name": "get",
      "outputs": [
        {
          "name": "",
          "type": "string"
        }
      ],
      "payable": false,
      "type": "function"
    },
    {
      "constant": false,
      "inputs": [
        {
          "name": "_domain",
          "type": "string"
        },
        {
          "name": "_hash",
          "type": "string"
        }
      ],
      "name": "set",
      "outputs": [
        {
          "name": "",
          "type": "address"
        }
      ],
      "payable": false,
      "type": "function"
    },
    {
      "inputs": [
        {
          "name": "ensAddr",
          "type": "address"
        }
      ],
      "payable": false,
      "type": "constructor"
    },
    {
      "anonymous": false,
      "inputs": [
        {
          "indexed": false,
          "name": "accountAddress",
          "type": "address"
        }
      ],
      "name": "LogNameHash",
      "type": "event"
    },
    {
      "anonymous": false,
      "inputs": [
        {
          "indexed": false,
          "name": "meh",
          "type": "bool"
        }
      ],
      "name": "LogSuccess",
      "type": "event"
    }
  ],
  "bytecode": "0x6060604052341561000f57600080fd5b6040516020806107b8833981016040528080519150505b60008054600160a060020a031916600160a060020a0383161790555b505b610765806100536000396000f300606060405263ffffffff60e060020a6000350416634aaf4a12811461003a578063693ec85e146100a7578063e942b51614610170575b600080fd5b341561004557600080fd5b61008b60046024813581810190830135806020601f8201819004810201604051908101604052818152929190602084018383808284375094965061021f95505050505050565b604051600160a060020a03909116815260200160405180910390f35b34156100b257600080fd5b6100f860046024813581810190830135806020601f8201819004810201604051908101604052818152929190602084018383808284375094965061033a95505050505050565b60405160208082528190810183818151815260200191508051906020019080838360005b838110156101355780820151818401525b60200161011c565b50505050905090810190601f1680156101625780820380516001836020036101000a031916815260200191505b509250505060405180910390f35b341561017b57600080fd5b61008b60046024813581810190830135806020601f8201819004810201604051908101604052818152929190602084018383808284378201915050505050509190803590602001908201803590602001908080601f01602080910402602001604051908101604052818152929190602084018383808284375094965061044c95505050505050565b604051600160a060020a03909116815260200160405180910390f35b60007f93cdeb708b7545dc668eb9280176169d1c33cfd8ed6f04690a0bcc88a93fc4ae818082856040518082805190602001908083835b6020831061027657805182525b601f199092019160209182019101610256565b6001836020036101000a0380198251168184511617909252505050919091019250604091505051809103902060405191825260208201526040908101905190819003902060008054919350600160a060020a03909116906302571be39084906040516020015260405160e060020a63ffffffff84160281526004810191909152602401602060405180830381600087803b151561031257600080fd5b6102c65a03f1151561032357600080fd5b50505060405180519450849150505b505050919050565b610342610687565b6001826040518082805190602001908083835b6020831061037557805182525b601f199092019160209182019101610355565b6001836020036101000a03801982511681845116808217855250505050505090500191505090815260200160405180910390206001018054600181600116156101000203166002900480601f01602080910402602001604051908101604052809291908181526020018280546001816001161561010002031660029004801561043f5780601f106104145761010080835404028352916020019161043f565b820191906000526020600020905b81548152906001019060200180831161042257829003601f168201915b505050505090505b919050565b60007f93cdeb708b7545dc668eb9280176169d1c33cfd8ed6f04690a0bcc88a93fc4ae818082866040518082805190602001908083835b602083106104a357805182525b601f199092019160209182019101610483565b6001836020036101000a0380198251168184511617909252505050919091019250604091505051809103902060405191825260208201526040908101905190819003902060008054919350600160a060020a03909116906302571be39084906040516020015260405160e060020a63ffffffff84160281526004810191909152602401602060405180830381600087803b151561053f57600080fd5b6102c65a03f1151561055057600080fd5b50505060405180519050905033600160a060020a031681600160a060020a0316141561067a57604080519081016040528033600160a060020a03168152602001868152506001876040518082805190602001908083835b602083106105c757805182525b601f1990920191602091820191016105a7565b6001836020036101000a0380198251168184511680821785525050505050509050019150509081526020016040519081900390208151815473ffffffffffffffffffffffffffffffffffffffff1916600160a060020a039190911617815560208201518160010190805161063f929160200190610699565b509050507f84c0720c14a2832bd33187d8657e64f9fa35079b62ab28a24309580037d14d526001604051901515815260200160405180910390a15b8093505b50505092915050565b60206040519081016040526000815290565b828054600181600116156101000203166002900490600052602060002090601f016020900481019282601f106106da57805160ff1916838001178555610707565b82800160010185558215610707579182015b828111156107075782518255916020019190600101906106ec565b5b50610714929150610718565b5090565b61073691905b80821115610714576000815560010161071e565b5090565b905600a165627a7a72305820019aa0089e980b77f563b441507a410609d86477c98f165737ed02dc47d25d210029",
  "source": "pragma solidity ^0.4.13;\nimport './AbstractENS.sol';\n\n/// @title EnsRelay contract that maps ens domain names to ipfs hashes\n/// @author Collin Chin\n\n contract EnsRelay {\n     AbstractENS ens;\n     mapping (string => Website) websites;\n\n     struct Website {\n         address owner;\n         string ipfsHash;\n     }\n\n     event LogNameHash(address accountAddress);\n\n     event LogSuccess(bool meh);\n\n     /// @dev Constructor\n     /// @param ensAddr address of deployed ens contracts\n     function EnsRelay(AbstractENS ensAddr) public {\n         ens = ensAddr;\n     }\n\n\n     /// @dev sets ens domain name to struct of domain owner and ipfs hash\n     /// @param _domain ens domain name ex: vitalik (no \".eth\" !)\n     /// @param _hash ipfs hash of website\n     /// `msg.sender = owner of domain`\n     function set(string _domain, string _hash) public returns (address){\n        /*address ensAddress = 0xAAb0c0DC13bFF409642230eF70fd3532461022ce;*/\n\n        //Hardcoded NameHash\n        bytes32 namehash = 0x93cdeb708b7545dc668eb9280176169d1c33cfd8ed6f04690a0bcc88a93fc4ae;\n        bytes32 subnode = sha3(namehash, sha3(_domain));\n        address ensOwner = ens.owner(subnode);\n        /*bytes32 remainder = sha3('eth');\n        bytes32 domain = sha3(_domain);\n        bytes32 node = sha3(remainder, domain);\n        address ensOwner = ens.owner(node);\n        LogNameHash(ensOwner);*/\n\n        // if the owner of the ENS domain is the function caller, store the hash\n        if (ensOwner == msg.sender) {\n            websites[_domain] = Website({\n                owner : msg.sender,\n                ipfsHash : _hash\n            });\n            LogSuccess(true);\n        }\n        return ensOwner;\n     }\n\n     function getOwner(string _domain) public constant returns(address){\n         //Hardcoded NameHash\n         bytes32 namehash = 0x93cdeb708b7545dc668eb9280176169d1c33cfd8ed6f04690a0bcc88a93fc4ae;\n         bytes32 subnode = sha3(namehash, sha3(_domain));\n         address ensOwner = ens.owner(subnode);\n         return ensOwner;\n     }\n\n    /// @dev gets ipfsHash from ens domain name\n    /// @param _domain ens domain name\n    /// @return ipfsHash\n     function get(string _domain)\n     public\n     constant\n     returns (string)\n     {\n         return websites[_domain].ipfsHash;\n     }\n }\n",
  "sourcePath": "/Users/collinchin/Desktop/register/contracts/EnsRelay.sol",
  "schemaVersion": "1.0.0",
  "updatedAt": "2017-10-15T07:47:19.336Z"
}