{
  "contractName": "HappyEns",
  "abi": [
    {
      "constant": true,
      "inputs": [
        {
          "name": "_domain",
          "type": "string"
        }
      ],
      "name": "getOwner",
      "outputs": [
        {
          "name": "",
          "type": "address"
        }
      ],
      "payable": false,
      "type": "function"
    },
    {
      "constant": true,
      "inputs": [
        {
          "name": "_domain",
          "type": "string"
        }
      ],
      "name": "get",
      "outputs": [
        {
          "name": "",
          "type": "string"
        }
      ],
      "payable": false,
      "type": "function"
    },
    {
      "constant": false,
      "inputs": [
        {
          "name": "_domain",
          "type": "string"
        },
        {
          "name": "_hash",
          "type": "string"
        }
      ],
      "name": "set",
      "outputs": [],
      "payable": false,
      "type": "function"
    },
    {
      "inputs": [
        {
          "name": "ensAddr",
          "type": "address"
        }
      ],
      "payable": false,
      "type": "constructor"
    },
    {
      "anonymous": false,
      "inputs": [
        {
          "indexed": false,
          "name": "ensOwner",
          "type": "address"
        },
        {
          "indexed": false,
          "name": "domain",
          "type": "string"
        },
        {
          "indexed": false,
          "name": "ipfsHash",
          "type": "string"
        }
      ],
      "name": "LogNewRegister",
      "type": "event"
    }
  ],
  "bytecode": "0x60606040527f93cdeb708b7545dc668eb9280176169d1c33cfd8ed6f04690a0bcc88a93fc4ae600155341561003357600080fd5b604051602080610868833981016040528080519150505b60008054600160a060020a031916600160a060020a0383161790555b505b6107f1806100776000396000f300606060405263ffffffff60e060020a6000350416634aaf4a12811461003a578063693ec85e146100a7578063e942b51614610170575b600080fd5b341561004557600080fd5b61008b60046024813581810190830135806020601f8201819004810201604051908101604052818152929190602084018383808284375094965061020595505050505050565b604051600160a060020a03909116815260200160405180910390f35b34156100b257600080fd5b6100f860046024813581810190830135806020601f8201819004810201604051908101604052818152929190602084018383808284375094965061030195505050505050565b60405160208082528190810183818151815260200191508051906020019080838360005b838110156101355780820151818401525b60200161011c565b50505050905090810190601f1680156101625780820380516001836020036101000a031916815260200191505b509250505060405180910390f35b341561017b57600080fd5b61020360046024813581810190830135806020601f8201819004810201604051908101604052818152929190602084018383808284378201915050505050509190803590602001908201803590602001908080601f01602080910402602001604051908101604052818152929190602084018383808284375094965061041395505050505050565b005b6000806000600154846040518082805190602001908083835b6020831061023e57805182525b601f19909201916020918201910161021e565b6001836020036101000a0380198251168184511617909252505050919091019250604091505051809103902060405191825260208201526040908101905190819003902060008054919350600160a060020a03909116906302571be39084906040516020015260405160e060020a63ffffffff84160281526004810191909152602401602060405180830381600087803b15156102da57600080fd5b6102c65a03f115156102eb57600080fd5b50505060405180519350839150505b5050919050565b610309610713565b6002826040518082805190602001908083835b6020831061033c57805182525b601f19909201916020918201910161031c565b6001836020036101000a03801982511681845116808217855250505050505090500191505090815260200160405180910390206001018054600181600116156101000203166002900480601f0160208091040260200160405190810160405280929190818152602001828054600181600116156101000203166002900480156104065780601f106103db57610100808354040283529160200191610406565b820191906000526020600020905b8154815290600101906020018083116103e957829003601f168201915b505050505090505b919050565b81600080600154836040518281526020810182805190602001908083835b6020831061045157805182525b601f199092019160209182019101610431565b6001836020036101000a03801982511681845116179092525050509190910193506040925050505190819003902060008054919350600160a060020a03909116906302571be39084906040516020015260405160e060020a63ffffffff84160281526004810191909152602401602060405180830381600087803b15156104d757600080fd5b6102c65a03f115156104e857600080fd5b5050506040518051915050600160a060020a0381161580159061051d575033600160a060020a031681600160a060020a031614155b1561052757600080fd5b604080519081016040528033600160a060020a03168152602001858152506002866040518082805190602001908083835b6020831061057857805182525b601f199092019160209182019101610558565b6001836020036101000a0380198251168184511680821785525050505050509050019150509081526020016040519081900390208151815473ffffffffffffffffffffffffffffffffffffffff1916600160a060020a03919091161781556020820151816001019080516105f0929160200190610725565b509050507fd22cd917770a9f5edeea606c24b29d99db173ec4c613998e1d65e5a6c597bc55338686604051600160a060020a0384168152606060208201818152906040830190830185818151815260200191508051906020019080838360005b838110156106695780820151818401525b602001610650565b50505050905090810190601f1680156106965780820380516001836020036101000a031916815260200191505b50838103825284818151815260200191508051906020019080838360005b838110156106cd5780820151818401525b6020016106b4565b50505050905090810190601f1680156106fa5780820380516001836020036101000a031916815260200191505b509550505050505060405180910390a15b5b5050505050565b60206040519081016040526000815290565b828054600181600116156101000203166002900490600052602060002090601f016020900481019282601f1061076657805160ff1916838001178555610793565b82800160010185558215610793579182015b82811115610793578251825591602001919060010190610778565b5b506107a09291506107a4565b5090565b6107c291905b808211156107a057600081556001016107aa565b5090565b905600a165627a7a723058208e9f626c938bb5dfe3b9d084ae0f2afc6f17f84fcc30d8ffc5d939796d4f817c0029",
  "source": "pragma solidity ^0.4.13;\nimport './AbstractENS.sol';\n\n\n/// @title HappyEns contract that maps ens domain names to ipfs hashes\n/// @author Collin Chin\n\n contract HappyEns {\n\n     AbstractENS ens;\n     //Hardcoded NameHash of .eth\n     bytes32 rootNode = 0x93cdeb708b7545dc668eb9280176169d1c33cfd8ed6f04690a0bcc88a93fc4ae;\n     mapping (string => Website) websites;\n\n     struct Website {\n         address owner;\n         string ipfsHash;\n     }\n\n     event LogNewRegister(address ensOwner, string domain, string ipfsHash);\n\n     modifier only_owner(string subnode) {\n         var node = sha3(rootNode, subnode);\n         var currentOwner = ens.owner(node);\n\n         if (currentOwner != 0 && currentOwner != msg.sender) revert();\n\n         _;\n     }\n\n     /// @dev Constructor\n     /// @param ensAddr address of deployed ens contracts\n     function HappyEns(AbstractENS ensAddr) public {\n         ens = ensAddr;\n     }\n\n\n     /// @dev sets ens domain name to struct of domain owner and ipfs hash\n     /// @param _domain ens domain name ex: vitalik (no \".eth\" !)\n     /// @param _hash ipfs hash of website\n     /// `msg.sender = owner of domain`\n     function set(string _domain, string _hash)\n     public\n     only_owner(_domain)\n     {\n        /*address ensAddress = 0x314159265dD8dbb310642f98f50C066173C1259b;*/\n\n        // if the owner of the ENS domain is the function caller, store the hash\n        websites[_domain] = Website({\n            owner : msg.sender,\n            ipfsHash : _hash\n        });\n        LogNewRegister(msg.sender, _domain, _hash);\n     }\n\n     /// @dev gets external account from ens domain name\n     /// @param _domain ens domain name\n     /// @return bytes32 address of owner\n     function getOwner(string _domain) public constant returns(address){\n         //Hardcoded NameHash of .eth\n         bytes32 node = sha3(rootNode, sha3(_domain));\n         address ensOwner = ens.owner(node);\n         return ensOwner;\n     }\n\n    /// @dev gets ipfsHash from ens domain name\n    /// @param _domain ens domain name\n    /// @return ipfsHash\n     function get(string _domain)\n     public\n     constant\n     returns (string)\n     {\n         return websites[_domain].ipfsHash;\n     }\n }\n",
  "sourcePath": "/Users/collinchin/Desktop/register/contracts/HappyEns.sol",
  "schemaVersion": "1.0.0",
  "updatedAt": "2017-10-17T05:13:53.729Z"
}